:020000040800F2
:1000000000200020DD010008E5010008E9010008EA
:1000100000000000000000000000000000000000E0
:100020000000000000000000000000001D020008A9
:100030000000000000000000210200082502000866
:100040002D0200082D0200082D0200082D020008D4
:100050002D0200088D0600082D0200082D02000860
:100060002D0200082D0200082D0200082D020008B4
:100070002D0200082D0200082D0200085D06000870
:100080002D0200082D020008000000002D020008CB
:100090002D0200082D0200082D0200082D02000884
:1000A0002D0200082D0200082D0200082D02000874
:1000B0002D020008000000002D02000800000000D2
:1000C0005FF808F130B583B000F040F9314B324AA7
:1000D0001360324A1360324B324A03E011681960F0
:1000E0000433043230498B42F8D32B4B1A682F4B20
:1000F0009A4204D1294B1A682D4B9A4200D0FEE750
:10010000244B2C4A13602C4A13602C4B02E0002233
:100110001A6004332A4A9342F9D3264B1B68002BFA
:1001200003D1254B1B68002B00D0FEE700F012F92D
:10013000694601A800F0B4F8224C234B1C1BA41004
:10014000002504E0AA001F4BD35898470135AC4264
:10015000F8DC1E4C1E4B1C1BA410002504E0AA005A
:100160001A4BD35898470135AC42F8DC00990198F6
:1001700000F05EFA0500174C174B1C1BA41004E09E
:10018000013CA200134BD3589847002CF8DC280000
:1001900000F062F8BABADECA000000208400002035
:1001A00000000020E0230008880000207856341268
:1001B0003254769888000020240100208800002016
:1001C00028010020580200085802000858020008C0
:1001D00058020008580200085802000810B5FFF73E
:1001E00071FFC04600BEFEE704207146084202D0FF
:1001F000EFF3098001E0EFF3088071460A4A1047E7
:1002000070B504000D00044800F052F829002000E9
:1002100000F0A4F800BEFEE78822000800BEFEE75A
:1002200000BEFEE7704700000102000800BEFEE7C6
:10023000E02300080000002088000020E0230008E0
:1002400000000000000000008800002028010020BD
:080250000000000000000000A6
:10025800FEE7C04610B503000C4A1268002A02D116
:100268000B490A4A1160094A106803330322934371
:10027800C318084A934206D901F060FB0C230360B7
:100288000120404201E0014A136010BD8C000020AB
:1002980028010020001C002001230360014B0B6093
:1002A8007047C046040000200FB400B583B004AB0B
:1002B80004CB01938021064801F072FB002803DD7E
:1002C8000100034800F03AF803B008BC04B018472E
:1002D80094000020F0B54F464646C0B487B00400ED
:1002E80001914356002B1FD10426301C211CABBEA4
:1002F800041C1CE03E00102F00D91026002305E046
:100308000022A25602A9CA5401330134B342F7D3DA
:1003180002AA914600224946CA540425281C494687
:10032800ABBE8046BF1B00E0019F002FE2D10198C1
:1003380007B00CBC90469946F0BDC04610B5FFF713
:10034800C9FF10BD10B500F0A1F810BD10B500F040
:10035800CFF810BD70B504000D001548FFF7A4FFD5
:1003680021681448FFF7A0FF61681348FFF79CFF56
:10037800A1681248FFF798FFE1681148FFF794FF5A
:1003880021691048FFF790FF61690F48FFF78CFF5C
:10039800A1690E48FFF788FFE1690D48FFF784FF60
:1003A8000C48FFF781FF29000B48FFF77DFF70BD60
:1003B800D8210008E8210008F821000808220008D0
:1003C80018220008282200083822000848220008BD
:1003D80058220008682200087022000882B0002312
:1003E80001930093264A1368802149020B43136046
:1003F800234B1A6880239B0213400093019B01330F
:100408000193009B002B04D1019AA023DB019A429F
:10041800EED11B4B1B689B0302D50123009301E01F
:1004280000230093009B012B28D11122154B1A6041
:10043800134B5A685A605A685A605968124A0A40F7
:100448005A605A68882149030A435A601A68802109
:1004580049040A431A600A4B1B689B01FBD5084BE9
:100468005A6803218A435A60596802220A435A602B
:10047800034B5B680C221340082BF9D102B070477C
:100488000010024000200240FF7FC0FF10B5124B51
:100498001A6801210A431A605868104A02405A60D3
:1004A80018680F4A02401A6018680E4A02401A601B
:1004B80058680D4A02405A60DA6A0F208243DA62AD
:1004C800186B0A4A02401A635A6B8A435A6300221D
:1004D8009A60FFF783FF10BD001002400CB8FFF8C8
:1004E800FFFFF6FEFFFFFBFFFFFFC0FFACFEFFFFB5
:1004F80010B51F4B5B680C221340042B07D0082B48
:1005080009D0002B23D11B4A1B4B1A6022E0194A41
:10051800194B1A601EE0164B5C685A68C0235B02D0
:10052800A40C0F20044002341A4204D11348444357
:10053800114B1C600EE00E4BDB6A0F211940013194
:100548000C4800F043F944430B4B1C6002E0094A95
:10055800094B1A60064B5B681B090F221340084AB7
:10056800D35CDBB2044A1168D940116010BDC046A3
:100578000010024000127A001C00002000093D0013
:100588000C000020074A5369802189020B435361FC
:100598009023DB051A680C218A431A60DA688A43BB
:1005A800DA607047001002400E49CB6901221343FC
:1005B800CB618023DB058C21198000211985013945
:1005C800D9629A820849C32080000A581202120A86
:1005D8000A50802212020A60998901220A4392B2C3
:1005E8009A8170470010024000E100E00A4B9A68C7
:1005F8009A600A4B996802221143996019680A4364
:100608001A60074BC12189005858064A02405A50BF
:1006180020221A607047C0460000014000040140D3
:1006280000E100E0FF00FFFF10B50748FFF73CFEC0
:10063800064B19680648FFF737FEFFF7A3FFFFF7D9
:10064800B3FFFFF7D3FFFEE7982200081C00002045
:10065800C022000810B58023DB051B8ADB070DD5F7
:100668000748FFF721FE8022D205138A01218B4318
:100678001382118801230B439BB2138010BDC0461F
:10068800D822000870B5224B5B699B073ED5214BE9
:100698001B88002B08D101221E4B1A808023DB0502
:1006A800002159621A802CE08023DB051A88012179
:1006B8008A431A805C6A184B186800F0EDFB051C29
:1006C800200000F0E9FB011C281C00F023F900F0D1
:1006D8004DFF00F027F800F09DFF051C011C0F4896
:1006E80000F018F900F0FEF80600281C00F0FAF8EF
:1006F8000300320021000A48FFF7D6FD0022054B0F
:100708001A80034A516902230B43536170BDC046E6
:1007180000040140140100201C00002000007A445D
:10072800EC220008F8B5254A4B005B0D9A18070023
:100738000C00132A16DC002A38DB214B0600134173
:100748001C000C4004430D00002C08D08024240316
:100758001441611899430C00002006002500300060
:100768002900F8BD332A0CDD80230600DB000D00CC
:100778009A42F4D102000B0000F0CCFB06000D00F9
:10078800EDE7104D0600AC46012563446D42DD409F
:100798002B000D000342E2D03325AD1A0122AA40F6
:1007A8001018874200D94C1C9843D6E7C90FCC07CC
:1007B8000020531CD1D1044B1C43CEE701FCFFFFA2
:1007C800FFFF0F00EDFBFFFF0000F03F0022430892
:1007D8008B4274D303098B425FD3030A8B4244D301
:1007E800030B8B4228D3030C8B420DD3FF22090243
:1007F80012BA030C8B4202D31212090265D0030B02
:100808008B4219D300E0090AC30B8B4201D3CB03F7
:10081800C01A5241830B8B4201D38B03C01A524139
:10082800430B8B4201D34B03C01A5241030B8B423B
:1008380001D30B03C01A5241C30A8B4201D3CB0226
:10084800C01A5241830A8B4201D38B02C01A52410B
:10085800430A8B4201D34B02C01A5241030A8B420E
:1008680001D30B02C01A5241CDD2C3098B4201D326
:10087800CB01C01A524183098B4201D38B01C01AA4
:10088800524143098B4201D34B01C01A524103091B
:100898008B4201D30B01C01A5241C3088B4201D3CA
:1008A800CB00C01A524183088B4201D38B00C01A77
:1008B800524143088B4201D34B00C01A5241411A9E
:1008C80000D20146524110467047FFE701B50020AB
:1008D80000F006F802BDC0460029F7D076E7704759
:1008E8007047C0469E2110B5C905041C00F04EFF94
:1008F800002803D1201C00F0ADFA10BD9E21201C59
:10090800C90500F021F900F0A5FA80231B069C46D2
:100918006044F2E7F0B5564644465F464D46F0B4AB
:1009280044024600C70F83B08846650A360EBA46A9
:100938003DD0FF2E22D00023EC00802599469B460F
:10094800ED0425437F3E43465C025800DB0F640AF2
:10095800000E984636D0FF2830D080230021E400CE
:10096800DB041C437F38301A01904846424608434E
:10097800724E800030587A4013008746002D44D1CB
:1009880008239946063B9B46DDE70122FF20002409
:100998001A406402C305640AD2071C4314432000AA
:1009A80003B03CBC90469946A246AB46F0BD002D2C
:1009B80020D104239946033B9B46C4E7002C17D15A
:1009C800022102E0002C0AD10121321A01924A4682
:1009D80043460A435A48920082587B409746200073
:1009E80000F0DEFE431F76309C4040420021BAE70B
:1009F8000321B8E7280000F0D3FE431F9D400023E1
:100A08007630464299469B469DE70C239946093B1A
:100A18009B4698E780240022E403FF20B9E70024DE
:100A2800C2468B465A465346022AAED0032A7DD088
:100A3800012A31D1012200201A400024A9E701220D
:100A4800101A1B2856DD1A4000200024A1E7802335
:100A5800DB031D424BD18023DB032B435C02640A7A
:100A68003A00FF2095E76D016001854230D2019A76
:100A78000024013A01921B220127290064006D001D
:100A8800002901DBA84201D82D1A3C43013A002A6B
:100A9800F3D16A1E95412C4301987F300028CEDDA2
:100AA800620704D00F222240042A00D00434220115
:100AB80003D5244A019814408030FE2800DD64E7FD
:100AC8000122A401640AC0B21A4062E72C00A9E717
:100AD8002D1A1A220124CFE76B02BCD500248023EB
:100AE800DB031C436402640A4246FF2051E71C42B0
:100AF800B3D1F4E721002022C140101A8440621EBD
:100B080094410C43620704D00F222240042A00D0EB
:100B18000434620104D5012201201A40002438E778
:100B28000122A401640A1A40002032E78023DB0373
:100B38001C436402640A5246FF202AE72C2300085B
:100B48006C230008FFFFFFF7F8B54A024E00430286
:100B58004400240EC50F9B09360EC90F9209FF2EBB
:100B680000D183E001204140A01BA9425CD00028AD
:100B780000DC95E0002E1CD1002A00D081E05A0745
:100B880004D00F221A40042A00D004335A013BD55E
:100B98000134FF2C00D191E001209B015B0AE4B2F3
:100BA80005405B02E4055B0AED0723432B4318006D
:100BB800F8BDFF2CE3D08021C9040A431B2800DDBF
:100BC80090E016002021C640081A8240511E8A4132
:100BD80032439B1A5A0115D59B019E09300000F03B
:100BE800DFFD0538864084426CDC041B330020207E
:100BF8000134E340041BA640721E9641002433438F
:100C0800BDE70D005A07BCD1DF0801231D40FF2CAA
:100C180033D1002F00D190E08022D20313003B4350
:100C28005B025B0AFF24BCE700284FDD002E2ED0B4
:100C3800FF2CA4D08025ED042A431B2800DD97E073
:100C480016002025C640281A8240501E8241324391
:100C58009B185A01D5D50134FF2C6DD001227B4851
:100C68001A405B08034013430D0088E7002A00D0B0
:100C78007AE777E7031EC5D100257B025B0AE4B259
:100C88008FE701380028A4D0FF2C97D177E7002AF6
:100C980000D174E701380028DAD0FF2CCDD16EE7F7
:100CA800002821D1601CC0B2012858DD80279E1A77
:100CB800FF0437402FD0D61A0D008FE701231D40BF
:100CC80000236EE7624B241A334058E7002851D1BD
:100CD800601CC6B2012E33DDFF282DD09B185B089F
:100CE80004004CE7012274E7002C1AD0FF2E1FD015
:100CF8008024E404404223431B2800DD96E01D00C5
:100D08002024C540201A8340581E83412B43D31A00
:100D180034000D005EE7002E00D05FE700250024B8
:100D2800ABE7002B44D0C0430028F0D0FF2EE3D11E
:100D38001300FF240D0022E70D00FF24002330E7F5
:100D4800002C5DD1002B7DD0002A00D117E79B181D
:100D58005A0100D456E73E4A040013400FE7002C1E
:100D68001ED1002B2FD1002A65D013000D0006E7F5
:100D780001226DE7002C1FD1002B59D0C043002859
:100D88000BD0FF2E4FD01B285EDC1D002024C54051
:100D9800201A8340581E83412B439B18340058E780
:100DA800002B1CD1002A49D013000D00FF24E6E6D1
:100DB800130034000D00E2E6FF2E34D08024E40452
:100DC80040422343DFE7002A00D1D8E68027981A5B
:100DD800FF04074000D14DE7D31A0D00CFE6FF24EA
:100DE800002A00D1CBE68020DB08C003034204D0F0
:100DF800D208024201D113000D00DB00FF24BEE639
:100E0800002B10D0FF24002A00D1B8E68020DB0890
:100E1800C003034203D0D208024200D11300DB0012
:100E28000D00FF24ABE61300FF24A8E601236EE7BC
:100E380013003400A3E6002700251EE780270025BD
:100E4800FF03E9E613009AE60123A6E7FFFFFF7D0B
:100E5800FFFFFFFB4302590A4300C20F1B0E00208D
:100E68007E2B0EDD9D2B0DDC802000040143952B8D
:100E78000BDC9620C31AD9400B005842002A00D137
:100E880018007047034BD018FBE7963B99400B00BE
:100E9800F3E7C046FFFFFF7F70B5041E28D000F0BF
:100EA8007FFC9E231B1A962B0ADC9622D21A9440AA
:100EB8006202520AD8B25202520AC005104370BDEB
:100EC800992B18DC9922D21A9440114A22406107C2
:100ED80004D00F210C40042C00D00432510103D55A
:100EE8000B4B1A409F231B1A9201520AD8B2E2E711
:100EF80000200022DFE705222500121AB921D5407B
:100F08002200C91A8A40541EA2412C001443DCE76F
:100F1800FFFFFFFBF8B556465F464D464446F0B422
:100F28000F00FD0FAA4609037C002E005F00450F45
:100F3800490A7F0D2943C5001803BC46400A570FCC
:100F4800640DDB0F3843D2009A4500D1AAE066460B
:100F5800A61B002E00DCFFE06346002B39D10300FE
:100F6800134300D0D9E06B0709D00F232B40042B83
:100F780005D02B1DAB42AD416D4249191D000B0236
:100F880000D482E0CA4B01349C4200D1FEE00A0042
:100F98005646C84BED081A405007640552020543EF
:100FA800120B640D002112030B0D1B056405120BB7
:100FB8001A436308C04CF60714401C4364006408D5
:100FC8003443280021003CBC90469946A246AB46D3
:100FD800F8BDB74B9C42C6D080231B041843382E5B
:100FE80000DDEBE01F2E00DD1EE120239B1B9C464D
:100FF80003006746BB40984613004746F3403B430F
:101008006746BA40571EBA4113430200F240EB1A32
:101018009D42B6411D008A1A7642911B0B0231D5BA
:101028004A02560A002E00D1B4E0300000F0B8FBA6
:101038000300083B1F2B00DDB5E020222900D21A4F
:10104800D1409E400A009D4032439C4200DDB1E001
:101058001C1B631C1F2B00DDD5E020211400280079
:10106800C91A8C40D8408D400443DA40681E854137
:1010780011002543002476E74146314300D134E28C
:10108800310045466B0700D06FE756464807ED0824
:10109800C9080543864B9C4235D00A036405120BE8
:1010A800640D7FE76346E31A9B46002B00DC8BE068
:1010B8006746002F3CD07E4FBC4200D153E78027C3
:1010C8003F0438435B46382B00DCF7E00243501EF0
:1010D80082410020D2B253194218AB4289411D0007
:1010E800494289180B02CDD5714B01349C4200D17D
:1010F8003DE101206F4A6B080A4028401843D50794
:10110800054351082FE72B000B4300D1CBE1802387
:101118001B030B431A03120B44E7013E002E6DD14B
:10112800AE1AB5429B41091A5B42C91A350075E7E8
:101138000700174300D116E701235B429C46E344AE
:101148005B46002B00D0E0E0AA18AA429B41091890
:101158005B4259181500C5E7002E75D1661C760547
:10116800760D012E00DCF3E0AE1AB0464545BF41CE
:101178000E1A7F42F61B370200D48FE0551BAA4295
:10118800B641411A76428E1B9A464BE756460022D4
:10119800002507E7280000F003FB20300300083B88
:1011A8001F2B00DC49E72A002838824000259C4292
:1011B80000DC4DE73F49E41A1140D4E60243501ED3
:1011C8008241D3B2002222E7002B00D0F3E0631C57
:1011D8009C465B055B0D012B00DC9FE0344B9C4576
:1011E80000D1C3E0AA180918AA4280414042411818
:1011F800CD075208154349086446B4E62C4B9C4277
:1012080000D0ECE6AFE611001F3CE1400C00202BBB
:1012180000D17FE04021CB1A9A4015436A1E9541C0
:101228000021254300242DE733000700203BDF4041
:101238003B00202E70D04027BE1BB0400243501EFA
:10124800824113430022E2E6002C4FD0184CA445FB
:1012580000D1ABE08024240476422143382E00DDFF
:10126800DFE01F2E00DD43E12027BC1BA1460C0058
:101278004F46BC40A0462C004746F4403C434F46EE
:10128800BD406F1EBD41F1402C43151BAA4292413F
:10129800411A5242891A64469A46BFE64146454673
:1012A800314300D0BEE6002600240025F2E6C04601
:1012B800FF070000FFFF7FFFFFFF0F801F2B59DC98
:1012C8002027FF1ABC46070063469F405B46B94685
:1012D8001700DF40B8464F4643461F4363469A40CF
:1012E800531E9A415B463A43D840F4E60C002C431F
:1012F8005CD0F643002E55D1551BAA42A441411A91
:101308006442091B9A46644688E6964FBC4200D060
:10131800D8E628E6002280E700208FE70B002B4361
:10132800002C00D0C2E0002B00D101E103001343E0
:1013380000D118E6AB18AB42B641091876427118CD
:101348000A0200D409E1884A1D00114064460AE6F1
:10135800002C5BD10E002E4300D08AE0010011431F
:1013680000D1C2E0010015009A46FCE56446002160
:1013780000258FE620235B429C46DC446346070039
:10138800DF405B46BC46202B00D1ACE040235F46E3
:10139800DB1B98400243501E8241634613431A00E8
:1013A800002098E66F4CA44500D057E701001500CF
:1013B80064469A46D7E5002C39D10C002C436ED0F0
:1013C800DB43002B1AD0674CA44568D0382B00DDCE
:1013D800A4E01F2B00DDAEE020240F00E41AA74094
:1013E800B9462F00DF40B846A3464F464446274338
:1013F8005C46A5406C1EA541D9403D43AD189542B9
:101408009B4109185B42591864466BE60C002C4353
:1014180015D1010011437BD0010015009A46514CAB
:10142800A1E50D43691E8D410021ECB22DE74D4C1D
:10143800A44534D0802424045B422143C6E7040039
:1014480014434ED0ED084C072C438025C9082D03C2
:10145800294208D0C6082E4205D1D20841071143B7
:101468000C009A463100620FC900E50011433D4C5B
:1014780079E50600164300D175E5AE1AB046454534
:10148800BF410E1A7F42F61B370200D4F4E5551B04
:10149800AA42B641411A7642891B9A4663E5010081
:1014A800150064465FE5002200257BE5002B3BD054
:1014B8000300134315D0ED084B072B438025C908BB
:1014C8002D03294207D0C4082C4204D141070B0040
:1014D8002100D2081343C9005A0F1143DD00214CE3
:1014E80041E5204C3FE5002054E700260025D1E5E2
:1014F80034000F00203CE7403C00202E2BD0402732
:10150800BE1BB1400D43691E8D4100212C43BCE632
:10151800802100260903134C0025BBE50D43691EF5
:101528008D410021EDB269E7010015000D4C1AE567
:101538000100150017E51C000F00203CE7403C00A7
:10154800202B0CD04027FB1A99400D43691E8D4172
:101558000021254352E70021D4E71D0092E5002130
:10156800F3E7C046FF070000FFFF7FFF4200120EAF
:10157800511C4302C9B270B55D0AC40F012915DDBB
:10158800E02189008C466D071B0B6244002128006E
:101598000D0D2D052B431C4D52052B4052081343AE
:1015A8005B00E4075B082343190070BD002A15D1CE
:1015B800002D1FD0280000F0F3F80A281DDC0B23AB
:1015C8002A001B1ADA4013000200153295400F4A10
:1015D8001B03121A52051B0B520DD7E7002D06D01C
:1015E80080221B0B120313436D07094ACEE7084AF2
:1015F8000023CBE700220023C8E703000B3B9D40F4
:101608002B000025E3E7C046FFFF0F808903000099
:10161800FF0700004B0070B55E0D0C03751C640AD3
:10162800420F6D052243C90FC4006D0D012D2ADD3F
:101638003B4BF318FE2B1ADC002B42DD8001451EC4
:10164800A841D2001043620F0243500704D00F2074
:101658001040042800D004328020C004104021D05B
:101668000133FF2B03D09201520ADBB201E0FF23C2
:1016780000225202520ADB0513435B00C9075B08CC
:101688000B43180070BD002E07D01443EFD0802004
:10169800D20080040243FF23D7E722430023002A15
:1016A80003D00522D208FF2B03D05202520ADBB224
:1016B800DFE7002A32D08020C00302435202520AD8
:1016C800D7E71800173014DB8020000402431E20DF
:1016D800C01A1F280FDC2500124BF3189D406E1E00
:1016E800B5419A402B0013432200C2401A430023FD
:1016F800ABE70023D5E702256D42EB1A1500DD4064
:10170800202809D0084BF3189A401443621E9441CC
:10171800220000232A4398E70022F6E70022A8E7E0
:1017280080FCFFFF82FCFFFFA2FCFFFF8446081C31
:101738006146FFE71FB500F0BDF8002801D400217D
:10174800C8421FBD10B500F049F84042013010BD35
:1017580010B500F0AFF8002801DB002010BD012013
:1017680010BDC04610B500F0A5F8002801DD002026
:1017780010BD012010BDC04610B500F057F8002874
:1017880001DC002010BD012010BDC04610B500F0DE
:101798004DF8002801DA002010BD012010BDC04618
:1017A8001C2101231B04984201D3000C10391B0A89
:1017B800984201D3000A08391B09984201D300094D
:1017C800043902A2105C40187047C04604030202A4
:1017D800010101010000000000000000430270B593
:1017E80042004C005D0AC30F4802120E460A240E3E
:1017F800C90FFF2A0FD0FF2C11D00120A24200D020
:1018080070BDB542FCD18B420DD0002AF8D128001A
:10181800431E9841F4E70120002DF1D1EBE70120A8
:10182800002EEDD1E9E70020EAE7C0464302F0B513
:1018380042005D0AC30F4802440A4800120E000E17
:10184800C90FFF2A1FD0FF2822D0002A09D16E42D3
:101858006E4100280FD1002C0DD10020002D09D099
:1018680005E0002801D1002C01D08B4213D058424A
:1018780001231843F0BD002EF7D048424141012012
:1018880049420843F6E7002DDDD002204042F1E747
:10189800002CDAD0F9E78242E9DC04DBA542E6D87D
:1018A8000020A542E6D25842434101205B4218433A
:1018B800E0E7C0464302F0B542004C005E0AC30FA1
:1018C8004802120E450A240EC90FFF2A17D0FF2C12
:1018D80019D0002A0BD170427041002C17D0002873
:1018E80007D048424141012049420843F0BD002C3D
:1018F80013D08B4214D0584201231843F6E7022034
:10190800002EF3D1E3E70220002DEFD1E1E7002D0F
:10191800E5D10020002EE9D0EDE7002DE9D1EAE776
:10192800A242E8DC04DBAE42E5D80020AE42DDD2BC
:101938005842434101205B421843D7E7014B1868DE
:101948007047C0468000002030B514009BB00500E9
:101958001A00002C04DA8B230360012040421CE0AB
:10196800822368469B0083810023009104919C4256
:1019780000D0631E02930593012369465B42CB8125
:1019880028001E9B00F07AF8431C01DA8B232B6099
:10199800002C02D00023009A13701BB030BD000049
:1019A80007B5009313000A00010002480068FFF71A
:1019B800CBFF0EBD80000020F0B58E6885B0070013
:1019C8000C00039201939E4243D890238A89DB003E
:1019D8001A423ED003250969236801985B1A0293CD
:1019E80063695D43EB0F5D19029B6D1001331B1892
:1019F800AB4200D91D00530510D52900380000F06E
:101A080041FB061E14D0029A216900F0D0FAA2897F
:101A1800194B134080221343A38112E02A00380097
:101A280000F090FB061E0CD12169380000F0DEFAA8
:101A38000C23402201203B60A38940421343A38129
:101A480017E0029B2661F61826606561019EED1A73
:101A5800A560019BB34200D21E00320003992068A2
:101A680000F0AEFA0020A3689B1BA36023689E19B0
:101A7800266005B0F0BDC0467FFBFFFFF0B59FB004
:101A8800029005938B890F0016001B0610D50B6971
:101A9800002B0DD1402100F0F5FA3860386100289C
:101AA80004D10C23029A01381360D8E040237B61EB
:101AB800002306AD6B6120336B761033AB763400B0
:101AC8002378002B03D1A31B049312D003E0252B0A
:101AD800F9D00134F4E7A31B320039000298FFF76C
:101AE8006BFF431C00D1B4E06A69049B94466344CD
:101AF8006B612378002B00D1ABE001220023524216
:101B08006A6002A95432521801342B60EB60AB6052
:101B18001370AB65534E21780522300000F03CFA73
:101B2800002807D00123801B83402A68013413430F
:101B38002B60EFE72B68DA0604D55322202102A890
:101B4800121811701A0704D553222B2102A8121853
:101B5800117022782A2A03D0099B00200A210EE05E
:101B6800059A111D12680591002A01DB099204E00B
:101B78005242EA60022213432B6001340BE02278C0
:101B8800303A092A04D84B4301349B180120F6E760
:101B9800002800D0099323782E2B1ED163782A2B96
:101BA8000AD1059B02341A1D1B680592002B01DA25
:101BB80001235B42079310E000230A201A00013436
:101BC8006B6021783039092904D84243013452180E
:101BD8000123F6E7002B00D00792234E2178032239
:101BE800300000F0D9F9002806D04023801B83403C
:101BF8002A68013413432B60217806221B48661C8F
:101C0800297600F0C9F9002812D0194B002B06D10B
:101C18000722059B073393430833059314E005AB6C
:101C280000933A00134B2900029800E000BF07E038
:101C380005AB00933A000F4B2900029800F08AF890
:101C48000390039B013304D06B69039A9B186B6163
:101C580035E7BB890B985B0601D5012040421FB0D0
:101C6800F0BDC046AC230008B2230008B623000824
:101C780000000000C1190008F7B5170001938A6831
:101C88000B6900900C00934200DA130022003B60BD
:101C980043321278002A01D001333B6023689B0647
:101CA80002D53B6802333B60062523681D401ED0E1
:101CB800230043331B785A1E9341226892061CD591
:101CC8003020E1184331087021005A1C4531097849
:101CD800A2184332023311700FE022000123193297
:101CE80001990098089EB047431C0ED00135E3685F
:101CF8003A689B1A9D42F0DBDAE7220001994332E9
:101D08000098089DA847431C02D10120404220E0CA
:101D180006232068E1683A6803400025042B03D1B4
:101D28008D1AEB43DB171D40A3682269934201DD3E
:101D38009B1AED180027BD420AD0220001231A324F
:101D480001990098089EB047431CDED00137F2E79E
:101D58000020FEBDF0B58BB006920A00433207930F
:101D6800059004920A7E0C00109B6E2A00D1ABE00D
:101D780011D8632A22D009D8002A00D1B5E0582A00
:101D880000D0C5E045310A70814A4FE0642A1DD071
:101D9800692A1BD0BCE0732A00D1AAE009D86F2AAF
:101DA80029D0702A00D0B3E0202209680A432260B3
:101DB80037E0752A1FD0782A33D0A9E00E001A68B8
:101DC8004236111D196013683370A4E021681A683F
:101DD800080606D4490604D5111D19600023D55EEE
:101DE80002E0111D19601568002D3BDA2D23049AB5
:101DF8006D42137036E021681A68080606D4490651
:101E080004D51568111D1960ADB202E0111D1960E5
:101E180015685F4B227E039308276F2A1DD00A2777
:101E28001BE022007821453211705A4A1968039242
:101E3800081D226818600D68100602D4500600D5E7
:101E4800ADB2D30702D520231A4322601027002DF4
:101E580003D1202322689A432260230000224333BF
:101E68001A7002E00A274A4B03936368A360002BA9
:101E780009DB0422216891432160002D05D1049ECD
:101E8800002B11D07BE0002D79D0049E280039006A
:101E9800FEF722FD039B013E5B5C2800337039008E
:101EA800FEF794FC051EF1D1082F09D12368DB0742
:101EB80006D563682269934202DC3023013E337001
:101EC800049B9B1B23612BE009681A68080607D44A
:101ED800490605D5111D19601368A28A1A8004E005
:101EE800111D1960136862691A600023049E23613A
:101EF80016E01A68111D1960166800216268300022
:101F080000F04AF8002801D0801B6060636803E095
:101F1800260042363270012323610023049A13708D
:101F2800079B09AA00932100069B0598FFF7A4FECA
:101F3800431C02D10120404227E023693200069960
:101F48000598079DA847431CF4D0236800259B07E4
:101F58000FD4099BE068984217DA180015E02200B0
:101F68000123193206990598079EB047431CE1D012
:101F78000135E368099A9B1A9D42F0DBE9E72600E0
:101F8800039B42361B7833708EE70BB0F0BDC0461A
:101F9800BD230008CE230008C9B28218904204D09D
:101FA80003788B4202D00130F8E700207047002305
:101FB80010B59A4203D0CC5CC4540133F9E710BD84
:101FC80010B5884202D98B18984201D3002305E046
:101FD8009B1A013A08D3995C8154FAE7934203D0DB
:101FE800CC5CC4540133F9E710BD000070B505009E
:101FF800002944D00C1F2368002B00DAE4182800BD
:1020080000F0D8F81E4A13681100002B02D1636053
:10201800146031E0A3420DD92268A018834203D18D
:1020280018685B688218226063600C6024E0A24232
:1020380003D813005A68002AF9D11E689819A042DB
:102048000BD12168711858181960824214D1106890
:102058005268411819605A600EE0A04202D90C2358
:102068002B6009E021686018824203D11068526829
:102078004118216062605C60280000F09CF870BD27
:102088001C010020032370B5CD1C9D4308350600B4
:102098000C2D01D20C2501E0002D01DBA94202D94B
:1020A8000C23336048E0300000F084F8234B1C68B0
:1020B8001A002100002913D00B685B1B0DD40B2BD1
:1020C80002D90B60CC181EE08C4202D16368136001
:1020D8001AE04B6863600C0016E00C004968E9E7F9
:1020E800174C2368002B03D1300000F051F8206012
:1020F8002900300000F04CF8431C18D00323C41CFE
:102108009C43A0420DD12560300000F054F8200017
:1021180007220B30231D9043C31A0ED05A42E250B7
:102128000BE0211A300000F033F8431CEBD10C23EC
:102138003000336000F03FF8002070BD1C01002023
:1021480018010020F8B506000C001500002904D17C
:102158001100FFF797FF040018E0002A03D1FFF7EA
:1021680045FF2C0012E000F027F885420ED929001F
:102178003000FFF787FF071E07D021002A00FFF76E
:1021880016FF21003000FFF731FF3C002000F8BDAA
:10219800002370B5064C050008002360FEF75AF8C6
:1021A800431C03D12368002B00D02B6070BDC046B0
:1021B80020010020704770470B1F1A68101F002A63
:1021C80004DA891804390B68D018043870470000FD
:1021D800537461636B206672616D653A0A00000092
:1021E800205230203D2020253038580A00000000B9
:1021F800205231203D2020253038580A00000000A8
:10220800205232203D2020253038580A0000000096
:10221800205233203D2020253038580A0000000085
:1022280020523132203D20253038580A0000000065
:10223800204C52203D2020253038580A000000004C
:10224800205043203D2020253038580A0000000047
:1022580020505352203D20253038580A00000000F5
:102268004D6973630A000000204C522F4558435FA4
:1022780052455455524E3D20253038580A0000002A
:102288005B486172644661756C745D0A0000000009
:102298005468697320697320506172742032206F0A
:1022A8006620496E74726F647563746F7279204C1E
:1022B80061622E2E2E0A000053797374656D2063B7
:1022C8006C6F636B3A20257520487A0A000000007D
:1022D8000A2A2A2A204F766572666C6F7721202A8F
:1022E8002A2A0A00636C6F636B206379636C6573D9
:1022F800203D2025640A207369676E616C20706533
:1023080072696F64203D202564206D730A2066720F
:10231800657175656E63793A20256420487A2C0AC0
:10232800000000006E0A000892090008500A000820
:10233800280A0008500A00081C0A0008500A000869
:10234800280A000892090008920900081C0A0008D7
:10235800280A0008D40A0008D40A0008D40A000889
:10236800560A000892090008920900083C0A000869
:10237800260A00083C0A00081C0A00083C0A000853
:10238800260A000892090008920900081C0A000899
:10239800260A0008D40A0008D40A0008D40A00084B
:1023A800E00A0008232D302B2000686C4C0065667D
:1023B800674546470030313233343536373839418E
:1023C80042434445460030313233343536373839A4
:0723D80061626364656600A9
:1023E0007856341290000020000000000000000029
:1023F000000000000102030406070809006CDC026B
:1024000000000000000000000000000000000000CC
:1024100000000000000000000000000000000000BC
:1024200000000000000000000000000000000000AC
:10243000000000000000000000000000000000009C
:10244000000000000000000000000000000000008C
:10245000000000000000000000000000000000007C
:082460002000002032547698A0
:04000005080000C52A
:00000001FF
